{"abi":[{"type":"constructor","inputs":[{"name":"_priceFeed","type":"address","internalType":"address"},{"name":"_interval","type":"uint256","internalType":"uint256"}],"stateMutability":"nonpayable"},{"type":"function","name":"calculateETH2USD","inputs":[],"outputs":[{"name":"","type":"uint256","internalType":"uint256"}],"stateMutability":"view"},{"type":"function","name":"enterRaffle","inputs":[],"outputs":[],"stateMutability":"payable"},{"type":"function","name":"getterFeed","inputs":[],"outputs":[{"name":"","type":"address","internalType":"contract AggregatorV3Interface"}],"stateMutability":"view"},{"type":"function","name":"pickWinner","inputs":[],"outputs":[],"stateMutability":"nonpayable"},{"type":"event","name":"raffleEntered","inputs":[{"name":"contenstant","type":"address","indexed":true,"internalType":"address"}],"anonymous":false},{"type":"error","name":"notEnoughEth","inputs":[]},{"type":"error","name":"notEnoughTimePassed","inputs":[]}],"bytecode":{"object":"0x60e060405234801561000f575f5ffd5b5060405161078a38038061078a83398181016040528101906100319190610140565b8173ffffffffffffffffffffffffffffffffffffffff1660808173ffffffffffffffffffffffffffffffffffffffff16815250503373ffffffffffffffffffffffffffffffffffffffff1660a08173ffffffffffffffffffffffffffffffffffffffff16815250508060c0818152505042600181905550505061017e565b5f5ffd5b5f73ffffffffffffffffffffffffffffffffffffffff82169050919050565b5f6100dc826100b3565b9050919050565b6100ec816100d2565b81146100f6575f5ffd5b50565b5f81519050610107816100e3565b92915050565b5f819050919050565b61011f8161010d565b8114610129575f5ffd5b50565b5f8151905061013a81610116565b92915050565b5f5f60408385031215610156576101556100af565b5b5f610163858286016100f9565b92505060206101748582860161012c565b9150509250929050565b60805160a05160c0516105e66101a45f395f61027001525f50505f60b901526105e65ff3fe60806040526004361061003e575f3560e01c80630425228e146100425780632cfcc5391461006c5780635cbc3020146100765780635d495aea146100a0575b5f5ffd5b34801561004d575f5ffd5b506100566100b6565b6040516100639190610351565b60405180910390f35b6100746100dd565b005b348015610081575f5ffd5b5061008a6101c2565b6040516100979190610382565b60405180910390f35b3480156100ab575f5ffd5b506100b461026e565b005b5f7f0000000000000000000000000000000000000000000000000000000000000000905090565b6100e56101c2565b34101561011e576040517f942bf51700000000000000000000000000000000000000000000000000000000815260040160405180910390fd5b5f33908060018154018082558091505060019003905f5260205f20015f9091909190916101000a81548173ffffffffffffffffffffffffffffffffffffffff021916908373ffffffffffffffffffffffffffffffffffffffff1602179055503373ffffffffffffffffffffffffffffffffffffffff167f0e182898f1846c09916c55f8a8e8e798df06b3631e1611e34a10303066d973ee60405160405180910390a2565b5f5f6101cc6100b6565b90505f8173ffffffffffffffffffffffffffffffffffffffff1663feaf968c6040518163ffffffff1660e01b815260040160a060405180830381865afa158015610218573d5f5f3e3d5ffd5b505050506040513d601f19601f8201168201806040525081019061023c919061043b565b5050509150505f81670de0b6b3a7640000600561025991906104df565b610263919061054d565b905080935050505090565b7f00000000000000000000000000000000000000000000000000000000000000006001544261029d919061057d565b11156102d5576040517ffdbfe33900000000000000000000000000000000000000000000000000000000815260040160405180910390fd5b565b5f73ffffffffffffffffffffffffffffffffffffffff82169050919050565b5f819050919050565b5f61031961031461030f846102d7565b6102f6565b6102d7565b9050919050565b5f61032a826102ff565b9050919050565b5f61033b82610320565b9050919050565b61034b81610331565b82525050565b5f6020820190506103645f830184610342565b92915050565b5f819050919050565b61037c8161036a565b82525050565b5f6020820190506103955f830184610373565b92915050565b5f5ffd5b5f69ffffffffffffffffffff82169050919050565b6103bd8161039f565b81146103c7575f5ffd5b50565b5f815190506103d8816103b4565b92915050565b5f819050919050565b6103f0816103de565b81146103fa575f5ffd5b50565b5f8151905061040b816103e7565b92915050565b61041a8161036a565b8114610424575f5ffd5b50565b5f8151905061043581610411565b92915050565b5f5f5f5f5f60a086880312156104545761045361039b565b5b5f610461888289016103ca565b9550506020610472888289016103fd565b945050604061048388828901610427565b935050606061049488828901610427565b92505060806104a5888289016103ca565b9150509295509295909350565b7f4e487b71000000000000000000000000000000000000000000000000000000005f52601160045260245ffd5b5f6104e98261036a565b91506104f48361036a565b92508282026105028161036a565b91508282048414831517610519576105186104b2565b5b5092915050565b7f4e487b71000000000000000000000000000000000000000000000000000000005f52601260045260245ffd5b5f6105578261036a565b91506105628361036a565b92508261057257610571610520565b5b828204905092915050565b5f6105878261036a565b91506105928361036a565b92508282039050818111156105aa576105a96104b2565b5b9291505056fea2646970667358221220ffbe349adfd87593ff78f053d531f28d1a28f97e525c9636203cae0f476d7cc664736f6c634300081e0033","linkReferences":{}},"methodIdentifiers":{"calculateETH2USD()":"5cbc3020","enterRaffle()":"2cfcc539","getterFeed()":"0425228e","pickWinner()":"5d495aea"},"id":1}