{"abi":[{"type":"constructor","inputs":[{"name":"_priceFeed","type":"address","internalType":"address"}],"stateMutability":"nonpayable"},{"type":"function","name":"calculateETH2USD","inputs":[],"outputs":[{"name":"","type":"uint256","internalType":"uint256"}],"stateMutability":"view"},{"type":"function","name":"enterRaffle","inputs":[],"outputs":[],"stateMutability":"payable"},{"type":"function","name":"getterFeed","inputs":[],"outputs":[{"name":"","type":"address","internalType":"contract AggregatorV3Interface"}],"stateMutability":"view"},{"type":"error","name":"notEnoughEth","inputs":[]}],"bytecode":{"object":"0x60c060405234801561000f575f5ffd5b5060405161062b38038061062b833981810160405281019061003191906100fd565b8073ffffffffffffffffffffffffffffffffffffffff1660808173ffffffffffffffffffffffffffffffffffffffff16815250503373ffffffffffffffffffffffffffffffffffffffff1660a08173ffffffffffffffffffffffffffffffffffffffff168152505050610128565b5f5ffd5b5f73ffffffffffffffffffffffffffffffffffffffff82169050919050565b5f6100cc826100a3565b9050919050565b6100dc816100c2565b81146100e6575f5ffd5b50565b5f815190506100f7816100d3565b92915050565b5f602082840312156101125761011161009f565b5b5f61011f848285016100e9565b91505092915050565b60805160a0516104e66101455f395f50505f609801526104e65ff3fe608060405260043610610033575f3560e01c80630425228e146100375780632cfcc539146100615780635cbc30201461006b575b5f5ffd5b348015610042575f5ffd5b5061004b610095565b6040516100589190610284565b60405180910390f35b6100696100bc565b005b348015610076575f5ffd5b5061007f61015e565b60405161008c91906102b5565b60405180910390f35b5f7f0000000000000000000000000000000000000000000000000000000000000000905090565b6100c461015e565b3410156100fd576040517f942bf51700000000000000000000000000000000000000000000000000000000815260040160405180910390fd5b5f33908060018154018082558091505060019003905f5260205f20015f9091909190916101000a81548173ffffffffffffffffffffffffffffffffffffffff021916908373ffffffffffffffffffffffffffffffffffffffff160217905550565b5f5f610168610095565b90505f8173ffffffffffffffffffffffffffffffffffffffff1663feaf968c6040518163ffffffff1660e01b815260040160a060405180830381865afa1580156101b4573d5f5f3e3d5ffd5b505050506040513d601f19601f820116820180604052508101906101d8919061036e565b5050509150505f81670de0b6b3a764000060056101f59190610412565b6101ff9190610480565b905080935050505090565b5f73ffffffffffffffffffffffffffffffffffffffff82169050919050565b5f819050919050565b5f61024c6102476102428461020a565b610229565b61020a565b9050919050565b5f61025d82610232565b9050919050565b5f61026e82610253565b9050919050565b61027e81610264565b82525050565b5f6020820190506102975f830184610275565b92915050565b5f819050919050565b6102af8161029d565b82525050565b5f6020820190506102c85f8301846102a6565b92915050565b5f5ffd5b5f69ffffffffffffffffffff82169050919050565b6102f0816102d2565b81146102fa575f5ffd5b50565b5f8151905061030b816102e7565b92915050565b5f819050919050565b61032381610311565b811461032d575f5ffd5b50565b5f8151905061033e8161031a565b92915050565b61034d8161029d565b8114610357575f5ffd5b50565b5f8151905061036881610344565b92915050565b5f5f5f5f5f60a08688031215610387576103866102ce565b5b5f610394888289016102fd565b95505060206103a588828901610330565b94505060406103b68882890161035a565b93505060606103c78882890161035a565b92505060806103d8888289016102fd565b9150509295509295909350565b7f4e487b71000000000000000000000000000000000000000000000000000000005f52601160045260245ffd5b5f61041c8261029d565b91506104278361029d565b92508282026104358161029d565b9150828204841483151761044c5761044b6103e5565b5b5092915050565b7f4e487b71000000000000000000000000000000000000000000000000000000005f52601260045260245ffd5b5f61048a8261029d565b91506104958361029d565b9250826104a5576104a4610453565b5b82820490509291505056fea2646970667358221220b38bf123cfc0b2286db8bda220908b24b2cc1283f8274849c83684abb80d971564736f6c634300081e0033","linkReferences":{}},"methodIdentifiers":{"calculateETH2USD()":"5cbc3020","enterRaffle()":"2cfcc539","getterFeed()":"0425228e"},"id":2}