{"abi":[{"type":"constructor","inputs":[{"name":"_priceFeed","type":"address","internalType":"address"}],"stateMutability":"nonpayable"},{"type":"function","name":"calculateETH2USD","inputs":[],"outputs":[{"name":"","type":"uint256","internalType":"uint256"}],"stateMutability":"view"},{"type":"function","name":"enterRaffle","inputs":[],"outputs":[],"stateMutability":"payable"},{"type":"function","name":"getterFeed","inputs":[],"outputs":[{"name":"","type":"address","internalType":"contract AggregatorV3Interface"}],"stateMutability":"view"},{"type":"event","name":"raffleEntered","inputs":[{"name":"contenstant","type":"address","indexed":true,"internalType":"address"}],"anonymous":false},{"type":"error","name":"notEnoughEth","inputs":[]}],"bytecode":{"object":"0x60c060405234801561000f575f5ffd5b5060405161066e38038061066e833981810160405281019061003191906100fd565b8073ffffffffffffffffffffffffffffffffffffffff1660808173ffffffffffffffffffffffffffffffffffffffff16815250503373ffffffffffffffffffffffffffffffffffffffff1660a08173ffffffffffffffffffffffffffffffffffffffff168152505050610128565b5f5ffd5b5f73ffffffffffffffffffffffffffffffffffffffff82169050919050565b5f6100cc826100a3565b9050919050565b6100dc816100c2565b81146100e6575f5ffd5b50565b5f815190506100f7816100d3565b92915050565b5f602082840312156101125761011161009f565b5b5f61011f848285016100e9565b91505092915050565b60805160a0516105296101455f395f50505f609801526105295ff3fe608060405260043610610033575f3560e01c80630425228e146100375780632cfcc539146100615780635cbc30201461006b575b5f5ffd5b348015610042575f5ffd5b5061004b610095565b60405161005891906102c7565b60405180910390f35b6100696100bc565b005b348015610076575f5ffd5b5061007f6101a1565b60405161008c91906102f8565b60405180910390f35b5f7f0000000000000000000000000000000000000000000000000000000000000000905090565b6100c46101a1565b3410156100fd576040517f942bf51700000000000000000000000000000000000000000000000000000000815260040160405180910390fd5b5f33908060018154018082558091505060019003905f5260205f20015f9091909190916101000a81548173ffffffffffffffffffffffffffffffffffffffff021916908373ffffffffffffffffffffffffffffffffffffffff1602179055503373ffffffffffffffffffffffffffffffffffffffff167f0e182898f1846c09916c55f8a8e8e798df06b3631e1611e34a10303066d973ee60405160405180910390a2565b5f5f6101ab610095565b90505f8173ffffffffffffffffffffffffffffffffffffffff1663feaf968c6040518163ffffffff1660e01b815260040160a060405180830381865afa1580156101f7573d5f5f3e3d5ffd5b505050506040513d601f19601f8201168201806040525081019061021b91906103b1565b5050509150505f81670de0b6b3a764000060056102389190610455565b61024291906104c3565b905080935050505090565b5f73ffffffffffffffffffffffffffffffffffffffff82169050919050565b5f819050919050565b5f61028f61028a6102858461024d565b61026c565b61024d565b9050919050565b5f6102a082610275565b9050919050565b5f6102b182610296565b9050919050565b6102c1816102a7565b82525050565b5f6020820190506102da5f8301846102b8565b92915050565b5f819050919050565b6102f2816102e0565b82525050565b5f60208201905061030b5f8301846102e9565b92915050565b5f5ffd5b5f69ffffffffffffffffffff82169050919050565b61033381610315565b811461033d575f5ffd5b50565b5f8151905061034e8161032a565b92915050565b5f819050919050565b61036681610354565b8114610370575f5ffd5b50565b5f815190506103818161035d565b92915050565b610390816102e0565b811461039a575f5ffd5b50565b5f815190506103ab81610387565b92915050565b5f5f5f5f5f60a086880312156103ca576103c9610311565b5b5f6103d788828901610340565b95505060206103e888828901610373565b94505060406103f98882890161039d565b935050606061040a8882890161039d565b925050608061041b88828901610340565b9150509295509295909350565b7f4e487b71000000000000000000000000000000000000000000000000000000005f52601160045260245ffd5b5f61045f826102e0565b915061046a836102e0565b9250828202610478816102e0565b9150828204841483151761048f5761048e610428565b5b5092915050565b7f4e487b71000000000000000000000000000000000000000000000000000000005f52601260045260245ffd5b5f6104cd826102e0565b91506104d8836102e0565b9250826104e8576104e7610496565b5b82820490509291505056fea2646970667358221220f154adc3ea6b804cd20eb6327986cf42b8fb1df051a77c4f4150fe1ab796e6cb64736f6c634300081e0033","linkReferences":{}},"methodIdentifiers":{"calculateETH2USD()":"5cbc3020","enterRaffle()":"2cfcc539","getterFeed()":"0425228e"},"id":1}