{"abi":[{"type":"constructor","inputs":[{"name":"_priceFeed","type":"address","internalType":"address"},{"name":"_interval","type":"uint256","internalType":"uint256"},{"name":"vrfCoordinator","type":"address","internalType":"address"}],"stateMutability":"nonpayable"},{"type":"function","name":"acceptOwnership","inputs":[],"outputs":[],"stateMutability":"nonpayable"},{"type":"function","name":"calculateETH2USD","inputs":[],"outputs":[{"name":"","type":"uint256","internalType":"uint256"}],"stateMutability":"view"},{"type":"function","name":"enterRaffle","inputs":[],"outputs":[],"stateMutability":"payable"},{"type":"function","name":"getterFeed","inputs":[],"outputs":[{"name":"","type":"address","internalType":"contract AggregatorV3Interface"}],"stateMutability":"view"},{"type":"function","name":"owner","inputs":[],"outputs":[{"name":"","type":"address","internalType":"address"}],"stateMutability":"view"},{"type":"function","name":"pickWinner","inputs":[],"outputs":[],"stateMutability":"nonpayable"},{"type":"function","name":"rawFulfillRandomWords","inputs":[{"name":"requestId","type":"uint256","internalType":"uint256"},{"name":"randomWords","type":"uint256[]","internalType":"uint256[]"}],"outputs":[],"stateMutability":"nonpayable"},{"type":"function","name":"s_vrfCoordinator","inputs":[],"outputs":[{"name":"","type":"address","internalType":"contract IVRFCoordinatorV2Plus"}],"stateMutability":"view"},{"type":"function","name":"setCoordinator","inputs":[{"name":"_vrfCoordinator","type":"address","internalType":"address"}],"outputs":[],"stateMutability":"nonpayable"},{"type":"function","name":"transferOwnership","inputs":[{"name":"to","type":"address","internalType":"address"}],"outputs":[],"stateMutability":"nonpayable"},{"type":"event","name":"CoordinatorSet","inputs":[{"name":"vrfCoordinator","type":"address","indexed":false,"internalType":"address"}],"anonymous":false},{"type":"event","name":"OwnershipTransferRequested","inputs":[{"name":"from","type":"address","indexed":true,"internalType":"address"},{"name":"to","type":"address","indexed":true,"internalType":"address"}],"anonymous":false},{"type":"event","name":"OwnershipTransferred","inputs":[{"name":"from","type":"address","indexed":true,"internalType":"address"},{"name":"to","type":"address","indexed":true,"internalType":"address"}],"anonymous":false},{"type":"event","name":"raffleEntered","inputs":[{"name":"contenstant","type":"address","indexed":true,"internalType":"address"}],"anonymous":false},{"type":"error","name":"OnlyCoordinatorCanFulfill","inputs":[{"name":"have","type":"address","internalType":"address"},{"name":"want","type":"address","internalType":"address"}]},{"type":"error","name":"OnlyOwnerOrCoordinator","inputs":[{"name":"have","type":"address","internalType":"address"},{"name":"owner","type":"address","internalType":"address"},{"name":"coordinator","type":"address","internalType":"address"}]},{"type":"error","name":"ZeroAddress","inputs":[]},{"type":"error","name":"notEnoughEth","inputs":[]},{"type":"error","name":"notEnoughTimePassed","inputs":[]}],"bytecode":{"object":"0x60e060405234801561000f575f5ffd5b5060405161160c38038061160c83398181016040528101906100319190610409565b8033805f5f73ffffffffffffffffffffffffffffffffffffffff168273ffffffffffffffffffffffffffffffffffffffff16036100a3576040517f08c379a000000000000000000000000000000000000000000000000000000000815260040161009a906104b3565b60405180910390fd5b815f5f6101000a81548173ffffffffffffffffffffffffffffffffffffffff021916908373ffffffffffffffffffffffffffffffffffffffff1602179055505f73ffffffffffffffffffffffffffffffffffffffff168173ffffffffffffffffffffffffffffffffffffffff1614610125576101248161024d60201b60201c565b5b5050505f73ffffffffffffffffffffffffffffffffffffffff168173ffffffffffffffffffffffffffffffffffffffff160361018d576040517fd92e233d00000000000000000000000000000000000000000000000000000000815260040160405180910390fd5b8060025f6101000a81548173ffffffffffffffffffffffffffffffffffffffff021916908373ffffffffffffffffffffffffffffffffffffffff160217905550508273ffffffffffffffffffffffffffffffffffffffff1660808173ffffffffffffffffffffffffffffffffffffffff16815250503373ffffffffffffffffffffffffffffffffffffffff1660a08173ffffffffffffffffffffffffffffffffffffffff16815250508160c0818152505042600481905550505050610539565b3373ffffffffffffffffffffffffffffffffffffffff168173ffffffffffffffffffffffffffffffffffffffff16036102bb576040517f08c379a00000000000000000000000000000000000000000000000000000000081526004016102b29061051b565b60405180910390fd5b8060015f6101000a81548173ffffffffffffffffffffffffffffffffffffffff021916908373ffffffffffffffffffffffffffffffffffffffff1602179055508073ffffffffffffffffffffffffffffffffffffffff165f5f9054906101000a900473ffffffffffffffffffffffffffffffffffffffff1673ffffffffffffffffffffffffffffffffffffffff167fed8889f560326eb138920d842192f0eb3dd22b4f139c87a2c57538e05bae127860405160405180910390a350565b5f5ffd5b5f73ffffffffffffffffffffffffffffffffffffffff82169050919050565b5f6103a58261037c565b9050919050565b6103b58161039b565b81146103bf575f5ffd5b50565b5f815190506103d0816103ac565b92915050565b5f819050919050565b6103e8816103d6565b81146103f2575f5ffd5b50565b5f81519050610403816103df565b92915050565b5f5f5f606084860312156104205761041f610378565b5b5f61042d868287016103c2565b935050602061043e868287016103f5565b925050604061044f868287016103c2565b9150509250925092565b5f82825260208201905092915050565b7f43616e6e6f7420736574206f776e657220746f207a65726f00000000000000005f82015250565b5f61049d601883610459565b91506104a882610469565b602082019050919050565b5f6020820190508181035f8301526104ca81610491565b9050919050565b7f43616e6e6f74207472616e7366657220746f2073656c660000000000000000005f82015250565b5f610505601783610459565b9150610510826104d1565b602082019050919050565b5f6020820190508181035f830152610532816104f9565b9050919050565b60805160a05160c0516110ac6105605f395f61046901525f50505f6101ed01526110ac5ff3fe608060405260043610610090575f3560e01c806379ba50971161005857806379ba5097146101305780638da5cb5b146101465780638ea98117146101705780639eccacf614610198578063f2fde38b146101c257610090565b80630425228e146100945780631fe543e3146100be5780632cfcc539146100e65780635cbc3020146100f05780635d495aea1461011a575b5f5ffd5b34801561009f575f5ffd5b506100a86101ea565b6040516100b59190610ad6565b60405180910390f35b3480156100c9575f5ffd5b506100e460048036038101906100df9190610b8b565b610211565b005b6100ee6102d5565b005b3480156100fb575f5ffd5b506101046103bb565b6040516101119190610bf7565b60405180910390f35b348015610125575f5ffd5b5061012e610467565b005b34801561013b575f5ffd5b506101446104d0565b005b348015610151575f5ffd5b5061015a61065f565b6040516101679190610c30565b60405180910390f35b34801561017b575f5ffd5b5061019660048036038101906101919190610c73565b610686565b005b3480156101a3575f5ffd5b506101ac610863565b6040516101b99190610cbe565b60405180910390f35b3480156101cd575f5ffd5b506101e860048036038101906101e39190610c73565b610888565b005b5f7f0000000000000000000000000000000000000000000000000000000000000000905090565b60025f9054906101000a900473ffffffffffffffffffffffffffffffffffffffff1673ffffffffffffffffffffffffffffffffffffffff163373ffffffffffffffffffffffffffffffffffffffff16146102c5573360025f9054906101000a900473ffffffffffffffffffffffffffffffffffffffff166040517f1cf993f40000000000000000000000000000000000000000000000000000000081526004016102bc929190610cd7565b60405180910390fd5b6102d083838361089c565b505050565b6102dd6103bb565b341015610316576040517f942bf51700000000000000000000000000000000000000000000000000000000815260040160405180910390fd5b600333908060018154018082558091505060019003905f5260205f20015f9091909190916101000a81548173ffffffffffffffffffffffffffffffffffffffff021916908373ffffffffffffffffffffffffffffffffffffffff1602179055503373ffffffffffffffffffffffffffffffffffffffff167f0e182898f1846c09916c55f8a8e8e798df06b3631e1611e34a10303066d973ee60405160405180910390a2565b5f5f6103c56101ea565b90505f8173ffffffffffffffffffffffffffffffffffffffff1663feaf968c6040518163ffffffff1660e01b815260040160a060405180830381865afa158015610411573d5f5f3e3d5ffd5b505050506040513d601f19601f820116820180604052508101906104359190610d84565b5050509150505f81670de0b6b3a764000060056104529190610e28565b61045c9190610e96565b905080935050505090565b7f0000000000000000000000000000000000000000000000000000000000000000600454426104969190610ec6565b10156104ce576040517ffdbfe33900000000000000000000000000000000000000000000000000000000815260040160405180910390fd5b565b60015f9054906101000a900473ffffffffffffffffffffffffffffffffffffffff1673ffffffffffffffffffffffffffffffffffffffff163373ffffffffffffffffffffffffffffffffffffffff161461055f576040517f08c379a000000000000000000000000000000000000000000000000000000000815260040161055690610f53565b60405180910390fd5b5f5f5f9054906101000a900473ffffffffffffffffffffffffffffffffffffffff169050335f5f6101000a81548173ffffffffffffffffffffffffffffffffffffffff021916908373ffffffffffffffffffffffffffffffffffffffff1602179055505f60015f6101000a81548173ffffffffffffffffffffffffffffffffffffffff021916908373ffffffffffffffffffffffffffffffffffffffff1602179055503373ffffffffffffffffffffffffffffffffffffffff168173ffffffffffffffffffffffffffffffffffffffff167f8be0079c531659141344cd1fd0a4f28419497f9722a3daafe3b4186f6b6457e060405160405180910390a350565b5f5f5f9054906101000a900473ffffffffffffffffffffffffffffffffffffffff16905090565b61068e61065f565b73ffffffffffffffffffffffffffffffffffffffff163373ffffffffffffffffffffffffffffffffffffffff1614158015610716575060025f9054906101000a900473ffffffffffffffffffffffffffffffffffffffff1673ffffffffffffffffffffffffffffffffffffffff163373ffffffffffffffffffffffffffffffffffffffff1614155b15610784573361072461065f565b60025f9054906101000a900473ffffffffffffffffffffffffffffffffffffffff166040517f061db9c100000000000000000000000000000000000000000000000000000000815260040161077b93929190610f71565b60405180910390fd5b5f73ffffffffffffffffffffffffffffffffffffffff168173ffffffffffffffffffffffffffffffffffffffff16036107e9576040517fd92e233d00000000000000000000000000000000000000000000000000000000815260040160405180910390fd5b8060025f6101000a81548173ffffffffffffffffffffffffffffffffffffffff021916908373ffffffffffffffffffffffffffffffffffffffff1602179055507fd1a6a14209a385a964d036e404cb5cfb71f4000cdb03c9366292430787261be6816040516108589190610c30565b60405180910390a150565b60025f9054906101000a900473ffffffffffffffffffffffffffffffffffffffff1681565b6108906108a1565b61089981610931565b50565b505050565b5f5f9054906101000a900473ffffffffffffffffffffffffffffffffffffffff1673ffffffffffffffffffffffffffffffffffffffff163373ffffffffffffffffffffffffffffffffffffffff161461092f576040517f08c379a000000000000000000000000000000000000000000000000000000000815260040161092690610ff0565b60405180910390fd5b565b3373ffffffffffffffffffffffffffffffffffffffff168173ffffffffffffffffffffffffffffffffffffffff160361099f576040517f08c379a000000000000000000000000000000000000000000000000000000000815260040161099690611058565b60405180910390fd5b8060015f6101000a81548173ffffffffffffffffffffffffffffffffffffffff021916908373ffffffffffffffffffffffffffffffffffffffff1602179055508073ffffffffffffffffffffffffffffffffffffffff165f5f9054906101000a900473ffffffffffffffffffffffffffffffffffffffff1673ffffffffffffffffffffffffffffffffffffffff167fed8889f560326eb138920d842192f0eb3dd22b4f139c87a2c57538e05bae127860405160405180910390a350565b5f73ffffffffffffffffffffffffffffffffffffffff82169050919050565b5f819050919050565b5f610a9e610a99610a9484610a5c565b610a7b565b610a5c565b9050919050565b5f610aaf82610a84565b9050919050565b5f610ac082610aa5565b9050919050565b610ad081610ab6565b82525050565b5f602082019050610ae95f830184610ac7565b92915050565b5f5ffd5b5f5ffd5b5f819050919050565b610b0981610af7565b8114610b13575f5ffd5b50565b5f81359050610b2481610b00565b92915050565b5f5ffd5b5f5ffd5b5f5ffd5b5f5f83601f840112610b4b57610b4a610b2a565b5b8235905067ffffffffffffffff811115610b6857610b67610b2e565b5b602083019150836020820283011115610b8457610b83610b32565b5b9250929050565b5f5f5f60408486031215610ba257610ba1610aef565b5b5f610baf86828701610b16565b935050602084013567ffffffffffffffff811115610bd057610bcf610af3565b5b610bdc86828701610b36565b92509250509250925092565b610bf181610af7565b82525050565b5f602082019050610c0a5f830184610be8565b92915050565b5f610c1a82610a5c565b9050919050565b610c2a81610c10565b82525050565b5f602082019050610c435f830184610c21565b92915050565b610c5281610c10565b8114610c5c575f5ffd5b50565b5f81359050610c6d81610c49565b92915050565b5f60208284031215610c8857610c87610aef565b5b5f610c9584828501610c5f565b91505092915050565b5f610ca882610aa5565b9050919050565b610cb881610c9e565b82525050565b5f602082019050610cd15f830184610caf565b92915050565b5f604082019050610cea5f830185610c21565b610cf76020830184610c21565b9392505050565b5f69ffffffffffffffffffff82169050919050565b610d1c81610cfe565b8114610d26575f5ffd5b50565b5f81519050610d3781610d13565b92915050565b5f819050919050565b610d4f81610d3d565b8114610d59575f5ffd5b50565b5f81519050610d6a81610d46565b92915050565b5f81519050610d7e81610b00565b92915050565b5f5f5f5f5f60a08688031215610d9d57610d9c610aef565b5b5f610daa88828901610d29565b9550506020610dbb88828901610d5c565b9450506040610dcc88828901610d70565b9350506060610ddd88828901610d70565b9250506080610dee88828901610d29565b9150509295509295909350565b7f4e487b71000000000000000000000000000000000000000000000000000000005f52601160045260245ffd5b5f610e3282610af7565b9150610e3d83610af7565b9250828202610e4b81610af7565b91508282048414831517610e6257610e61610dfb565b5b5092915050565b7f4e487b71000000000000000000000000000000000000000000000000000000005f52601260045260245ffd5b5f610ea082610af7565b9150610eab83610af7565b925082610ebb57610eba610e69565b5b828204905092915050565b5f610ed082610af7565b9150610edb83610af7565b9250828203905081811115610ef357610ef2610dfb565b5b92915050565b5f82825260208201905092915050565b7f4d7573742062652070726f706f736564206f776e6572000000000000000000005f82015250565b5f610f3d601683610ef9565b9150610f4882610f09565b602082019050919050565b5f6020820190508181035f830152610f6a81610f31565b9050919050565b5f606082019050610f845f830186610c21565b610f916020830185610c21565b610f9e6040830184610c21565b949350505050565b7f4f6e6c792063616c6c61626c65206279206f776e6572000000000000000000005f82015250565b5f610fda601683610ef9565b9150610fe582610fa6565b602082019050919050565b5f6020820190508181035f83015261100781610fce565b9050919050565b7f43616e6e6f74207472616e7366657220746f2073656c660000000000000000005f82015250565b5f611042601783610ef9565b915061104d8261100e565b602082019050919050565b5f6020820190508181035f83015261106f81611036565b905091905056fea26469706673582212204704144342d849582e62349bcac26a139eba883feaf2a6998560b5b326c2d95964736f6c634300081e0033","linkReferences":{}},"methodIdentifiers":{"acceptOwnership()":"79ba5097","calculateETH2USD()":"5cbc3020","enterRaffle()":"2cfcc539","getterFeed()":"0425228e","owner()":"8da5cb5b","pickWinner()":"5d495aea","rawFulfillRandomWords(uint256,uint256[])":"1fe543e3","s_vrfCoordinator()":"9eccacf6","setCoordinator(address)":"8ea98117","transferOwnership(address)":"f2fde38b"},"id":9}